{
  "contractName": "AIModelMarketplace",
  "abi": [
    {
      "anonymous": false,
      "inputs": [
        {
          "indexed": false,
          "internalType": "uint256",
          "name": "modelId",
          "type": "uint256"
        },
        {
          "indexed": false,
          "internalType": "string",
          "name": "name",
          "type": "string"
        },
        {
          "indexed": false,
          "internalType": "uint256",
          "name": "price",
          "type": "uint256"
        },
        {
          "indexed": false,
          "internalType": "address",
          "name": "creator",
          "type": "address"
        }
      ],
      "name": "ModelListed",
      "type": "event"
    },
    {
      "anonymous": false,
      "inputs": [
        {
          "indexed": false,
          "internalType": "uint256",
          "name": "modelId",
          "type": "uint256"
        },
        {
          "indexed": false,
          "internalType": "address",
          "name": "buyer",
          "type": "address"
        }
      ],
      "name": "ModelPurchased",
      "type": "event"
    },
    {
      "anonymous": false,
      "inputs": [
        {
          "indexed": false,
          "internalType": "uint256",
          "name": "modelId",
          "type": "uint256"
        },
        {
          "indexed": false,
          "internalType": "uint8",
          "name": "rating",
          "type": "uint8"
        }
      ],
      "name": "ModelRated",
      "type": "event"
    },
    {
      "inputs": [
        {
          "internalType": "address",
          "name": "",
          "type": "address"
        }
      ],
      "name": "balances",
      "outputs": [
        {
          "internalType": "uint256",
          "name": "",
          "type": "uint256"
        }
      ],
      "stateMutability": "view",
      "type": "function",
      "constant": true
    },
    {
      "inputs": [
        {
          "internalType": "uint256",
          "name": "",
          "type": "uint256"
        }
      ],
      "name": "models",
      "outputs": [
        {
          "internalType": "string",
          "name": "name",
          "type": "string"
        },
        {
          "internalType": "string",
          "name": "description",
          "type": "string"
        },
        {
          "internalType": "uint256",
          "name": "price",
          "type": "uint256"
        },
        {
          "internalType": "address payable",
          "name": "creator",
          "type": "address"
        },
        {
          "internalType": "uint8",
          "name": "ratingSum",
          "type": "uint8"
        },
        {
          "internalType": "uint8",
          "name": "ratingCount",
          "type": "uint8"
        }
      ],
      "stateMutability": "view",
      "type": "function",
      "constant": true
    },
    {
      "inputs": [
        {
          "internalType": "string",
          "name": "name",
          "type": "string"
        },
        {
          "internalType": "string",
          "name": "description",
          "type": "string"
        },
        {
          "internalType": "uint256",
          "name": "price",
          "type": "uint256"
        }
      ],
      "name": "listModel",
      "outputs": [],
      "stateMutability": "nonpayable",
      "type": "function"
    },
    {
      "inputs": [
        {
          "internalType": "uint256",
          "name": "modelId",
          "type": "uint256"
        }
      ],
      "name": "purchaseModel",
      "outputs": [],
      "stateMutability": "payable",
      "type": "function",
      "payable": true
    },
    {
      "inputs": [
        {
          "internalType": "uint256",
          "name": "modelId",
          "type": "uint256"
        },
        {
          "internalType": "uint8",
          "name": "rating",
          "type": "uint8"
        }
      ],
      "name": "rateModel",
      "outputs": [],
      "stateMutability": "nonpayable",
      "type": "function"
    },
    {
      "inputs": [],
      "name": "withdrawFunds",
      "outputs": [],
      "stateMutability": "nonpayable",
      "type": "function"
    },
    {
      "inputs": [
        {
          "internalType": "uint256",
          "name": "modelId",
          "type": "uint256"
        }
      ],
      "name": "getModelDetails",
      "outputs": [
        {
          "internalType": "string",
          "name": "",
          "type": "string"
        },
        {
          "internalType": "string",
          "name": "",
          "type": "string"
        },
        {
          "internalType": "uint256",
          "name": "",
          "type": "uint256"
        },
        {
          "internalType": "address",
          "name": "",
          "type": "address"
        },
        {
          "internalType": "uint8",
          "name": "",
          "type": "uint8"
        }
      ],
      "stateMutability": "view",
      "type": "function",
      "constant": true
    },
    {
      "inputs": [],
      "name": "getModelsCount",
      "outputs": [
        {
          "internalType": "uint256",
          "name": "",
          "type": "uint256"
        }
      ],
      "stateMutability": "view",
      "type": "function",
      "constant": true
    }
  ],
  "bytecode": "0x608060405234801561001057600080fd5b506117a9806100206000396000f3fe60806040526004361061007b5760003560e01c8063298fbde01161004e578063298fbde01461012657806331fc042f146101515780636a030ca914610192578063dc746862146101d45761007b565b806312ee1c0e146100805780631c788a9a146100a957806324600fc3146100d257806327e235e3146100e9575b600080fd5b34801561008c57600080fd5b506100a760048036038101906100a29190610e77565b6101f0565b005b3480156100b557600080fd5b506100d060048036038101906100cb9190610f1f565b610453565b005b3480156100de57600080fd5b506100e76105eb565b005b3480156100f557600080fd5b50610110600480360381019061010b9190610e4e565b610701565b60405161011d9190611340565b60405180910390f35b34801561013257600080fd5b5061013b610719565b6040516101489190611340565b60405180910390f35b34801561015d57600080fd5b5061017860048036038101906101739190610ef6565b610725565b6040516101899594939291906111ff565b60405180910390f35b34801561019e57600080fd5b506101b960048036038101906101b49190610ef6565b6109df565b6040516101cb96959493929190611190565b60405180910390f35b6101ee60048036038101906101e99190610ef6565b610b75565b005b6000835111610234576040517f08c379a000000000000000000000000000000000000000000000000000000000815260040161022b90611260565b60405180910390fd5b6000825111610278576040517f08c379a000000000000000000000000000000000000000000000000000000000815260040161026f906112c0565b60405180910390fd5b600081116102bb576040517f08c379a00000000000000000000000000000000000000000000000000000000081526004016102b290611320565b60405180910390fd5b60006040518060c001604052808581526020018481526020018381526020013373ffffffffffffffffffffffffffffffffffffffff168152602001600060ff168152602001600060ff168152509080600181540180825580915050600190039060005260206000209060040201600090919091909150600082015181600001908051906020019061034d929190610d04565b50602082015181600101908051906020019061036a929190610d04565b506040820151816002015560608201518160030160006101000a81548173ffffffffffffffffffffffffffffffffffffffff021916908373ffffffffffffffffffffffffffffffffffffffff16021790555060808201518160030160146101000a81548160ff021916908360ff16021790555060a08201518160030160156101000a81548160ff021916908360ff16021790555050507f4eed6af0d402cb471979373747ee3f09e77a623bff41d503ce96edacb72d858f60016000805490506104339190611534565b8483336040516104469493929190611384565b60405180910390a1505050565b600080549050821061049a576040517f08c379a0000000000000000000000000000000000000000000000000000000008152600401610491906112e0565b60405180910390fd5b60008160ff161180156104b1575060058160ff1611155b6104f0576040517f08c379a00000000000000000000000000000000000000000000000000000000081526004016104e790611300565b60405180910390fd5b600080838154811061052b577f4e487b7100000000000000000000000000000000000000000000000000000000600052603260045260246000fd5b90600052602060002090600402019050818160030160148282829054906101000a900460ff1661055b91906114cc565b92506101000a81548160ff021916908360ff16021790555080600301601581819054906101000a900460ff168092919061059490611637565b91906101000a81548160ff021916908360ff160217905550507f2949eaecf3f493ad44e848775c4935e28f53f1f7ad5957f2d1cffb9c8929e07683836040516105de9291906113d0565b60405180910390a1505050565b6000600160003373ffffffffffffffffffffffffffffffffffffffff1673ffffffffffffffffffffffffffffffffffffffff16815260200190815260200160002054905060008111610672576040517f08c379a0000000000000000000000000000000000000000000000000000000008152600401610669906112a0565b60405180910390fd5b6000600160003373ffffffffffffffffffffffffffffffffffffffff1673ffffffffffffffffffffffffffffffffffffffff168152602001908152602001600020819055503373ffffffffffffffffffffffffffffffffffffffff166108fc829081150290604051600060405180830381858888f193505050501580156106fd573d6000803e3d6000fd5b5050565b60016020528060005260406000206000915090505481565b60008080549050905090565b606080600080600080805490508610610773576040517f08c379a000000000000000000000000000000000000000000000000000000000815260040161076a906112e0565b60405180910390fd5b60008087815481106107ae577f4e487b7100000000000000000000000000000000000000000000000000000000600052603260045260246000fd5b90600052602060002090600402016040518060c00160405290816000820180546107d790611605565b80601f016020809104026020016040519081016040528092919081815260200182805461080390611605565b80156108505780601f1061082557610100808354040283529160200191610850565b820191906000526020600020905b81548152906001019060200180831161083357829003601f168201915b5050505050815260200160018201805461086990611605565b80601f016020809104026020016040519081016040528092919081815260200182805461089590611605565b80156108e25780601f106108b7576101008083540402835291602001916108e2565b820191906000526020600020905b8154815290600101906020018083116108c557829003601f168201915b50505050508152602001600282015481526020016003820160009054906101000a900473ffffffffffffffffffffffffffffffffffffffff1673ffffffffffffffffffffffffffffffffffffffff1673ffffffffffffffffffffffffffffffffffffffff1681526020016003820160149054906101000a900460ff1660ff1660ff1681526020016003820160159054906101000a900460ff1660ff1660ff168152505090506000808260a0015160ff161161099e5760006109b3565b8160a0015182608001516109b29190611503565b5b905081600001518260200151836040015184606001518496509650965096509650505091939590929450565b600081815481106109ef57600080fd5b9060005260206000209060040201600091509050806000018054610a1290611605565b80601f0160208091040260200160405190810160405280929190818152602001828054610a3e90611605565b8015610a8b5780601f10610a6057610100808354040283529160200191610a8b565b820191906000526020600020905b815481529060010190602001808311610a6e57829003601f168201915b505050505090806001018054610aa090611605565b80601f0160208091040260200160405190810160405280929190818152602001828054610acc90611605565b8015610b195780601f10610aee57610100808354040283529160200191610b19565b820191906000526020600020905b815481529060010190602001808311610afc57829003601f168201915b5050505050908060020154908060030160009054906101000a900473ffffffffffffffffffffffffffffffffffffffff16908060030160149054906101000a900460ff16908060030160159054906101000a900460ff16905086565b6000805490508110610bbc576040517f08c379a0000000000000000000000000000000000000000000000000000000008152600401610bb3906112e0565b60405180910390fd5b6000808281548110610bf7577f4e487b7100000000000000000000000000000000000000000000000000000000600052603260045260246000fd5b9060005260206000209060040201905080600201543414610c4d576040517f08c379a0000000000000000000000000000000000000000000000000000000008152600401610c4490611280565b60405180910390fd5b34600160008360030160009054906101000a900473ffffffffffffffffffffffffffffffffffffffff1673ffffffffffffffffffffffffffffffffffffffff1673ffffffffffffffffffffffffffffffffffffffff1681526020019081526020016000206000828254610cc09190611476565b925050819055507fc8581808129c51c0416692a5ea1b58e080ae8f21e384eefe2f2dc85d231d12ba8233604051610cf892919061135b565b60405180910390a15050565b828054610d1090611605565b90600052602060002090601f016020900481019282610d325760008555610d79565b82601f10610d4b57805160ff1916838001178555610d79565b82800160010185558215610d79579182015b82811115610d78578251825591602001919060010190610d5d565b5b509050610d869190610d8a565b5090565b5b80821115610da3576000816000905550600101610d8b565b5090565b6000610dba610db58461142a565b6113f9565b905082815260208101848484011115610dd257600080fd5b610ddd8482856115c3565b509392505050565b600081359050610df48161172e565b92915050565b600082601f830112610e0b57600080fd5b8135610e1b848260208601610da7565b91505092915050565b600081359050610e3381611745565b92915050565b600081359050610e488161175c565b92915050565b600060208284031215610e6057600080fd5b6000610e6e84828501610de5565b91505092915050565b600080600060608486031215610e8c57600080fd5b600084013567ffffffffffffffff811115610ea657600080fd5b610eb286828701610dfa565b935050602084013567ffffffffffffffff811115610ecf57600080fd5b610edb86828701610dfa565b9250506040610eec86828701610e24565b9150509250925092565b600060208284031215610f0857600080fd5b6000610f1684828501610e24565b91505092915050565b60008060408385031215610f3257600080fd5b6000610f4085828601610e24565b9250506020610f5185828601610e39565b9150509250929050565b610f648161157a565b82525050565b610f7381611568565b82525050565b6000610f848261145a565b610f8e8185611465565b9350610f9e8185602086016115d2565b610fa78161171d565b840191505092915050565b6000610fbf601a83611465565b91507f4d6f64656c206e616d652063616e6e6f7420626520656d7074790000000000006000830152602082019050919050565b6000610fff601883611465565b91507f496e636f7272656374207061796d656e7420616d6f756e7400000000000000006000830152602082019050919050565b600061103f601483611465565b91507f4e6f2066756e647320746f2077697468647261770000000000000000000000006000830152602082019050919050565b600061107f601b83611465565b91507f4465736372697074696f6e2063616e6e6f7420626520656d70747900000000006000830152602082019050919050565b60006110bf601483611465565b91507f4d6f64656c20646f6573206e6f742065786973740000000000000000000000006000830152602082019050919050565b60006110ff601e83611465565b91507f526174696e67206d757374206265206265747765656e203120616e64203500006000830152602082019050919050565b600061113f601c83611465565b91507f5072696365206d7573742062652067726561746572207468616e2030000000006000830152602082019050919050565b61117b816115ac565b82525050565b61118a816115b6565b82525050565b600060c08201905081810360008301526111aa8189610f79565b905081810360208301526111be8188610f79565b90506111cd6040830187611172565b6111da6060830186610f5b565b6111e76080830185611181565b6111f460a0830184611181565b979650505050505050565b600060a08201905081810360008301526112198188610f79565b9050818103602083015261122d8187610f79565b905061123c6040830186611172565b6112496060830185610f6a565b6112566080830184611181565b9695505050505050565b6000602082019050818103600083015261127981610fb2565b9050919050565b6000602082019050818103600083015261129981610ff2565b9050919050565b600060208201905081810360008301526112b981611032565b9050919050565b600060208201905081810360008301526112d981611072565b9050919050565b600060208201905081810360008301526112f9816110b2565b9050919050565b60006020820190508181036000830152611319816110f2565b9050919050565b6000602082019050818103600083015261133981611132565b9050919050565b60006020820190506113556000830184611172565b92915050565b60006040820190506113706000830185611172565b61137d6020830184610f6a565b9392505050565b60006080820190506113996000830187611172565b81810360208301526113ab8186610f79565b90506113ba6040830185611172565b6113c76060830184610f6a565b95945050505050565b60006040820190506113e56000830185611172565b6113f26020830184611181565b9392505050565b6000604051905081810181811067ffffffffffffffff821117156114205761141f6116ee565b5b8060405250919050565b600067ffffffffffffffff821115611445576114446116ee565b5b601f19601f8301169050602081019050919050565b600081519050919050565b600082825260208201905092915050565b6000611481826115ac565b915061148c836115ac565b9250827fffffffffffffffffffffffffffffffffffffffffffffffffffffffffffffffff038211156114c1576114c0611661565b5b828201905092915050565b60006114d7826115b6565b91506114e2836115b6565b92508260ff038211156114f8576114f7611661565b5b828201905092915050565b600061150e826115b6565b9150611519836115b6565b92508261152957611528611690565b5b828204905092915050565b600061153f826115ac565b915061154a836115ac565b92508282101561155d5761155c611661565b5b828203905092915050565b60006115738261158c565b9050919050565b60006115858261158c565b9050919050565b600073ffffffffffffffffffffffffffffffffffffffff82169050919050565b6000819050919050565b600060ff82169050919050565b82818337600083830152505050565b60005b838110156115f05780820151818401526020810190506115d5565b838111156115ff576000848401525b50505050565b6000600282049050600182168061161d57607f821691505b60208210811415611631576116306116bf565b5b50919050565b6000611642826115b6565b915060ff82141561165657611655611661565b5b600182019050919050565b7f4e487b7100000000000000000000000000000000000000000000000000000000600052601160045260246000fd5b7f4e487b7100000000000000000000000000000000000000000000000000000000600052601260045260246000fd5b7f4e487b7100000000000000000000000000000000000000000000000000000000600052602260045260246000fd5b7f4e487b7100000000000000000000000000000000000000000000000000000000600052604160045260246000fd5b6000601f19601f8301169050919050565b61173781611568565b811461174257600080fd5b50565b61174e816115ac565b811461175957600080fd5b50565b611765816115b6565b811461177057600080fd5b5056fea2646970667358221220e442dc9a7dc6914f90a027b8bd84a82336bca84a80823ce276c26f5635ab86c664736f6c63430008000033",
  "immutableReferences": {},
  "source": "// SPDX-License-Identifier: MIT\r\npragma solidity ^0.8.0;\r\n\r\ncontract AIModelMarketplace {\r\n    struct Model {\r\n        string name;\r\n        string description;\r\n        uint256 price;\r\n        address payable creator;\r\n        uint8 ratingSum;\r\n        uint8 ratingCount;\r\n    }\r\n\r\n    Model[] public models;\r\n    mapping(address => uint256) public balances;\r\n\r\n    event ModelListed(uint256 modelId, string name, uint256 price, address creator);\r\n    event ModelPurchased(uint256 modelId, address buyer);\r\n    event ModelRated(uint256 modelId, uint8 rating);\r\n\r\n    function listModel(string memory name, string memory description, uint256 price) public {\r\n    require(bytes(name).length > 0, \"Model name cannot be empty\");\r\n    require(bytes(description).length > 0, \"Description cannot be empty\");\r\n    require(price > 0, \"Price must be greater than 0\");\r\n\r\n    models.push(Model(name, description, price, payable(msg.sender), 0, 0));\r\n    emit ModelListed(models.length - 1, name, price, msg.sender);\r\n}\r\n\r\n\r\n    function purchaseModel(uint256 modelId) public payable {\r\n        require(modelId < models.length, \"Model does not exist\");\r\n        Model storage model = models[modelId];\r\n        require(msg.value == model.price, \"Incorrect payment amount\");\r\n        balances[model.creator] += msg.value;\r\n        emit ModelPurchased(modelId, msg.sender);\r\n    }\r\n\r\n    function rateModel(uint256 modelId, uint8 rating) public {\r\n        require(modelId < models.length, \"Model does not exist\");\r\n        require(rating > 0 && rating <= 5, \"Rating must be between 1 and 5\");\r\n        Model storage model = models[modelId];\r\n        model.ratingSum += rating;\r\n        model.ratingCount++;\r\n        emit ModelRated(modelId, rating);\r\n    }\r\n\r\n    function withdrawFunds() public {\r\n        uint256 amount = balances[msg.sender];\r\n        require(amount > 0, \"No funds to withdraw\");\r\n        balances[msg.sender] = 0;\r\n        payable(msg.sender).transfer(amount);\r\n    }\r\n\r\n    function getModelDetails(uint256 modelId)\r\n        public\r\n        view\r\n        returns (\r\n            string memory,\r\n            string memory,\r\n            uint256,\r\n            address,\r\n            uint8\r\n        )\r\n    {\r\n        require(modelId < models.length, \"Model does not exist\");\r\n        Model memory model = models[modelId];\r\n        uint8 averageRating = model.ratingCount > 0 ? model.ratingSum / model.ratingCount : 0;\r\n        return (model.name, model.description, model.price, model.creator, averageRating);\r\n    }\r\n\r\n    function getModelsCount() public view returns (uint256) {\r\n        return models.length;\r\n    }\r\n}\r\n",
  "sourcePath": "C:\\Users\\Rerukui\\AIModelMarketplace\\contracts\\AIModelMarketplace.sol",
  "compiler": {
    "name": "solc",
    "version": "0.8.0+commit.c7dfd78e.Emscripten.clang"
  },
  "schemaVersion": "3.4.16",
  "updatedAt": "2025-01-09T23:00:04.891Z",
  "networkType": "ethereum",
  "devdoc": {
    "kind": "dev",
    "methods": {},
    "version": 1
  },
  "userdoc": {
    "kind": "user",
    "methods": {},
    "version": 1
  }
}